{
  "_format": "hh-sol-artifact-1",
  "contractName": "BeatnBuddy",
  "sourceName": "contracts/BeatnBuddy.sol",
  "abi": [
    {
      "inputs": [],
      "stateMutability": "nonpayable",
      "type": "constructor"
    },
    {
      "anonymous": false,
      "inputs": [
        {
          "indexed": true,
          "internalType": "uint256",
          "name": "soundId",
          "type": "uint256"
        },
        {
          "indexed": true,
          "internalType": "address",
          "name": "soundContract",
          "type": "address"
        },
        {
          "indexed": true,
          "internalType": "uint256",
          "name": "tokenId",
          "type": "uint256"
        },
        {
          "indexed": false,
          "internalType": "address",
          "name": "owner",
          "type": "address"
        }
      ],
      "name": "SoundCreated",
      "type": "event"
    },
    {
      "inputs": [
        {
          "internalType": "address",
          "name": "soundContract",
          "type": "address"
        },
        {
          "internalType": "uint256",
          "name": "tokenId",
          "type": "uint256"
        }
      ],
      "name": "createSoundItem",
      "outputs": [],
      "stateMutability": "payable",
      "type": "function"
    },
    {
      "inputs": [],
      "name": "getMySounds",
      "outputs": [
        {
          "components": [
            {
              "internalType": "uint256",
              "name": "soundId",
              "type": "uint256"
            },
            {
              "internalType": "address",
              "name": "soundContract",
              "type": "address"
            },
            {
              "internalType": "uint256",
              "name": "tokenId",
              "type": "uint256"
            },
            {
              "internalType": "address payable",
              "name": "owner",
              "type": "address"
            }
          ],
          "internalType": "struct BeatnBuddy.BeatnBuddySound[]",
          "name": "",
          "type": "tuple[]"
        }
      ],
      "stateMutability": "view",
      "type": "function"
    },
    {
      "inputs": [],
      "name": "getSounds",
      "outputs": [
        {
          "components": [
            {
              "internalType": "uint256",
              "name": "soundId",
              "type": "uint256"
            },
            {
              "internalType": "address",
              "name": "soundContract",
              "type": "address"
            },
            {
              "internalType": "uint256",
              "name": "tokenId",
              "type": "uint256"
            },
            {
              "internalType": "address payable",
              "name": "owner",
              "type": "address"
            }
          ],
          "internalType": "struct BeatnBuddy.BeatnBuddySound[]",
          "name": "",
          "type": "tuple[]"
        }
      ],
      "stateMutability": "view",
      "type": "function"
    }
  ],
  "bytecode": "0x608060405234801561001057600080fd5b506001600055600280546001600160a01b031916331790556106a6806100376000396000f3fe6080604052600436106100345760003560e01c80636df5b5d5146100395780638c5bc09e1461004e578063a238c67514610079575b600080fd5b61004c610047366004610581565b61008e565b005b34801561005a57600080fd5b50610063610227565b60405161007091906105b7565b60405180910390f35b34801561008557600080fd5b506100636103ef565b600260005414156100e55760405162461bcd60e51b815260206004820152601f60248201527f5265656e7472616e637947756172643a207265656e7472616e742063616c6c00604482015260640160405180910390fd5b60026000556100f8600180546001019055565b600061010360015490565b604080516080810182528281526001600160a01b038681166020808401828152848601898152336060870181815260008a81526003958690528990209751885592516001880180549188166001600160a01b031992831617905591516002880155915195909201805495909416949091169390931790915591516323b872dd60e01b8152600481019190915230602482015260448101859052919250906323b872dd90606401600060405180830381600087803b1580156101c357600080fd5b505af11580156101d7573d6000803e3d6000fd5b50506040513381528492506001600160a01b038616915083907f4ba1b39746c0ed30a87c86d2246480dfdbbc5004f84f6fe546eaef638fb062699060200160405180910390a45050600160005550565b6060600061023460015490565b905060008060005b83811015610297573360036000610254846001610627565b81526020810191909152604001600020600301546001600160a01b0316141561028557610282600184610627565b92505b8061028f8161063f565b91505061023c565b5060008267ffffffffffffffff8111156102c157634e487b7160e01b600052604160045260246000fd5b6040519080825280602002602001820160405280156102fa57816020015b6102e7610547565b8152602001906001900390816102df5790505b50905060005b848110156103e6573360036000610318846001610627565b81526020810191909152604001600020600301546001600160a01b031614156103d4576000610348826001610627565b60008181526003602081815260409283902083516080810185528154815260018201546001600160a01b0390811693820193909352600282015494810194909452918201541660608301528551929350918590879081106103b957634e487b7160e01b600052603260045260246000fd5b60209081029190910101526103cf600186610627565b945050505b806103de8161063f565b915050610300565b50949350505050565b606060006103fc60015490565b905060008060005b8381101561042b57610417600184610627565b9250806104238161063f565b915050610404565b5060008267ffffffffffffffff81111561045557634e487b7160e01b600052604160045260246000fd5b60405190808252806020026020018201604052801561048e57816020015b61047b610547565b8152602001906001900390816104735790505b50905060005b848110156103e65760006104a9826001610627565b60008181526003602081815260409283902083516080810185528154815260018201546001600160a01b03908116938201939093526002820154948101949094529182015416606083015285519293509185908790811061051a57634e487b7160e01b600052603260045260246000fd5b6020908102919091010152610530600186610627565b94505050808061053f9061063f565b915050610494565b60405180608001604052806000815260200160006001600160a01b031681526020016000815260200160006001600160a01b031681525090565b60008060408385031215610593578182fd5b82356001600160a01b03811681146105a9578283fd5b946020939093013593505050565b602080825282518282018190526000919060409081850190868401855b8281101561061a57815180518552868101516001600160a01b039081168887015286820151878701526060918201511690850152608090930192908501906001016105d4565b5091979650505050505050565b6000821982111561063a5761063a61065a565b500190565b60006000198214156106535761065361065a565b5060010190565b634e487b7160e01b600052601160045260246000fdfea2646970667358221220327a6f6fdc997c2690dd0b8b0d9965707d31ff8f22358ea3747ac70b9588835764736f6c63430008040033",
  "linkReferences": {},
  "deployedLinkReferences": {}
}