{
  "_format": "hh-sol-artifact-1",
  "contractName": "BeatnBuddy",
  "sourceName": "contracts/BeatnBuddy.sol",
  "abi": [
    {
      "inputs": [],
      "stateMutability": "nonpayable",
      "type": "constructor"
    },
    {
      "anonymous": false,
      "inputs": [
        {
          "indexed": true,
          "internalType": "uint256",
          "name": "soundId",
          "type": "uint256"
        },
        {
          "indexed": true,
          "internalType": "address",
          "name": "soundContract",
          "type": "address"
        },
        {
          "indexed": true,
          "internalType": "uint256",
          "name": "tokenId",
          "type": "uint256"
        },
        {
          "indexed": false,
          "internalType": "address",
          "name": "owner",
          "type": "address"
        }
      ],
      "name": "SoundCreated",
      "type": "event"
    },
    {
      "inputs": [
        {
          "internalType": "address",
          "name": "soundContract",
          "type": "address"
        },
        {
          "internalType": "uint256",
          "name": "tokenId",
          "type": "uint256"
        }
      ],
      "name": "createSoundItem",
      "outputs": [],
      "stateMutability": "payable",
      "type": "function"
    },
    {
      "inputs": [],
      "name": "getMySounds",
      "outputs": [
        {
          "components": [
            {
              "internalType": "uint256",
              "name": "soundId",
              "type": "uint256"
            },
            {
              "internalType": "address",
              "name": "soundContract",
              "type": "address"
            },
            {
              "internalType": "uint256",
              "name": "tokenId",
              "type": "uint256"
            },
            {
              "internalType": "address payable",
              "name": "owner",
              "type": "address"
            }
          ],
          "internalType": "struct BeatnBuddy.BeatnBuddySound[]",
          "name": "",
          "type": "tuple[]"
        }
      ],
      "stateMutability": "view",
      "type": "function"
    },
    {
      "inputs": [
        {
          "internalType": "bool",
          "name": "limit",
          "type": "bool"
        }
      ],
      "name": "getSounds",
      "outputs": [
        {
          "components": [
            {
              "internalType": "uint256",
              "name": "soundId",
              "type": "uint256"
            },
            {
              "internalType": "address",
              "name": "soundContract",
              "type": "address"
            },
            {
              "internalType": "uint256",
              "name": "tokenId",
              "type": "uint256"
            },
            {
              "internalType": "address payable",
              "name": "owner",
              "type": "address"
            }
          ],
          "internalType": "struct BeatnBuddy.BeatnBuddySound[]",
          "name": "",
          "type": "tuple[]"
        }
      ],
      "stateMutability": "view",
      "type": "function"
    }
  ],
  "bytecode": "0x608060405234801561001057600080fd5b506001600055600280546001600160a01b03191633179055610674806100376000396000f3fe6080604052600436106100345760003560e01c80636df5b5d5146100395780638c5bc09e1461004e578063a49c50b014610079575b600080fd5b61004c610047366004610528565b610099565b005b34801561005a57600080fd5b506100636101c4565b6040516100709190610585565b60405180910390f35b34801561008557600080fd5b5061006361009436600461055e565b61038c565b600260005414156100f05760405162461bcd60e51b815260206004820152601f60248201527f5265656e7472616e637947756172643a207265656e7472616e742063616c6c00604482015260640160405180910390fd5b6002600055610103600180546001019055565b600061010e60015490565b604080516080810182528281526001600160a01b038681166020808401828152848601898152336060870181815260008a81526003808752908a90209851895593516001890180549189166001600160a01b03199283161790559251600289015551969092018054969095169516949094179092559251918252929350849284917f4ba1b39746c0ed30a87c86d2246480dfdbbc5004f84f6fe546eaef638fb06269910160405180910390a45050600160005550565b606060006101d160015490565b905060008060005b838110156102345733600360006101f18460016105f5565b81526020810191909152604001600020600301546001600160a01b031614156102225761021f6001846105f5565b92505b8061022c8161060d565b9150506101d9565b5060008267ffffffffffffffff81111561025e57634e487b7160e01b600052604160045260246000fd5b60405190808252806020026020018201604052801561029757816020015b6102846104ee565b81526020019060019003908161027c5790505b50905060005b848110156103835733600360006102b58460016105f5565b81526020810191909152604001600020600301546001600160a01b031614156103715760006102e58260016105f5565b60008181526003602081815260409283902083516080810185528154815260018201546001600160a01b03908116938201939093526002820154948101949094529182015416606083015285519293509185908790811061035657634e487b7160e01b600052603260045260246000fd5b602090810291909101015261036c6001866105f5565b945050505b8061037b8161060d565b91505061029d565b50949350505050565b6060600061039960015490565b905060008167ffffffffffffffff8111156103c457634e487b7160e01b600052604160045260246000fd5b6040519080825280602002602001820160405280156103fd57816020015b6103ea6104ee565b8152602001906001900390816103e25790505b5090506000805b838110156104e457600060038161041c8460016105f5565b8152602001908152602001600020905060018361043991906105f5565b604080516080810182528354815260018401546001600160a01b0390811660208301526002850154928201929092526003840154909116606082015285519194509085908590811061049b57634e487b7160e01b600052603260045260246000fd5b60209081029190910101526104b16001836105f5565b915060018715151480156104c6575060088210155b156104d157506104e4565b50806104dc8161060d565b915050610404565b5090949350505050565b60405180608001604052806000815260200160006001600160a01b031681526020016000815260200160006001600160a01b031681525090565b6000806040838503121561053a578182fd5b82356001600160a01b0381168114610550578283fd5b946020939093013593505050565b60006020828403121561056f578081fd5b8135801515811461057e578182fd5b9392505050565b602080825282518282018190526000919060409081850190868401855b828110156105e857815180518552868101516001600160a01b039081168887015286820151878701526060918201511690850152608090930192908501906001016105a2565b5091979650505050505050565b6000821982111561060857610608610628565b500190565b600060001982141561062157610621610628565b5060010190565b634e487b7160e01b600052601160045260246000fdfea2646970667358221220ffdf818e6f7280f7e38f36ebc7b2101df7550a7fdedd398f55b4aa1ed5a306d864736f6c63430008040033",
  "linkReferences": {},
  "deployedLinkReferences": {}
}